{
  "contractName": "Patrickiez",
  "abi": [
    {
      "inputs": [],
      "stateMutability": "nonpayable",
      "type": "constructor"
    },
    {
      "inputs": [],
      "name": "ApprovalCallerNotOwnerNorApproved",
      "type": "error"
    },
    {
      "inputs": [],
      "name": "ApprovalQueryForNonexistentToken",
      "type": "error"
    },
    {
      "inputs": [],
      "name": "BalanceQueryForZeroAddress",
      "type": "error"
    },
    {
      "inputs": [],
      "name": "MintERC2309QuantityExceedsLimit",
      "type": "error"
    },
    {
      "inputs": [],
      "name": "MintToZeroAddress",
      "type": "error"
    },
    {
      "inputs": [],
      "name": "MintZeroQuantity",
      "type": "error"
    },
    {
      "inputs": [],
      "name": "OwnerQueryForNonexistentToken",
      "type": "error"
    },
    {
      "inputs": [],
      "name": "OwnershipNotInitializedForExtraData",
      "type": "error"
    },
    {
      "inputs": [],
      "name": "TransferCallerNotOwnerNorApproved",
      "type": "error"
    },
    {
      "inputs": [],
      "name": "TransferFromIncorrectOwner",
      "type": "error"
    },
    {
      "inputs": [],
      "name": "TransferToNonERC721ReceiverImplementer",
      "type": "error"
    },
    {
      "inputs": [],
      "name": "TransferToZeroAddress",
      "type": "error"
    },
    {
      "inputs": [],
      "name": "URIQueryForNonexistentToken",
      "type": "error"
    },
    {
      "anonymous": false,
      "inputs": [
        {
          "indexed": true,
          "internalType": "address",
          "name": "owner",
          "type": "address"
        },
        {
          "indexed": true,
          "internalType": "address",
          "name": "approved",
          "type": "address"
        },
        {
          "indexed": true,
          "internalType": "uint256",
          "name": "tokenId",
          "type": "uint256"
        }
      ],
      "name": "Approval",
      "type": "event"
    },
    {
      "anonymous": false,
      "inputs": [
        {
          "indexed": true,
          "internalType": "address",
          "name": "owner",
          "type": "address"
        },
        {
          "indexed": true,
          "internalType": "address",
          "name": "operator",
          "type": "address"
        },
        {
          "indexed": false,
          "internalType": "bool",
          "name": "approved",
          "type": "bool"
        }
      ],
      "name": "ApprovalForAll",
      "type": "event"
    },
    {
      "anonymous": false,
      "inputs": [
        {
          "indexed": true,
          "internalType": "uint256",
          "name": "fromTokenId",
          "type": "uint256"
        },
        {
          "indexed": false,
          "internalType": "uint256",
          "name": "toTokenId",
          "type": "uint256"
        },
        {
          "indexed": true,
          "internalType": "address",
          "name": "from",
          "type": "address"
        },
        {
          "indexed": true,
          "internalType": "address",
          "name": "to",
          "type": "address"
        }
      ],
      "name": "ConsecutiveTransfer",
      "type": "event"
    },
    {
      "anonymous": false,
      "inputs": [
        {
          "indexed": true,
          "internalType": "address",
          "name": "previousOwner",
          "type": "address"
        },
        {
          "indexed": true,
          "internalType": "address",
          "name": "newOwner",
          "type": "address"
        }
      ],
      "name": "OwnershipTransferred",
      "type": "event"
    },
    {
      "anonymous": false,
      "inputs": [
        {
          "indexed": true,
          "internalType": "address",
          "name": "from",
          "type": "address"
        },
        {
          "indexed": true,
          "internalType": "address",
          "name": "to",
          "type": "address"
        },
        {
          "indexed": true,
          "internalType": "uint256",
          "name": "tokenId",
          "type": "uint256"
        }
      ],
      "name": "Transfer",
      "type": "event"
    },
    {
      "inputs": [
        {
          "internalType": "address",
          "name": "to",
          "type": "address"
        },
        {
          "internalType": "uint256",
          "name": "tokenId",
          "type": "uint256"
        }
      ],
      "name": "approve",
      "outputs": [],
      "stateMutability": "payable",
      "type": "function"
    },
    {
      "inputs": [
        {
          "internalType": "address",
          "name": "owner",
          "type": "address"
        }
      ],
      "name": "balanceOf",
      "outputs": [
        {
          "internalType": "uint256",
          "name": "",
          "type": "uint256"
        }
      ],
      "stateMutability": "view",
      "type": "function"
    },
    {
      "inputs": [
        {
          "internalType": "uint256",
          "name": "tokenId",
          "type": "uint256"
        }
      ],
      "name": "getApproved",
      "outputs": [
        {
          "internalType": "address",
          "name": "",
          "type": "address"
        }
      ],
      "stateMutability": "view",
      "type": "function"
    },
    {
      "inputs": [
        {
          "internalType": "address",
          "name": "owner",
          "type": "address"
        },
        {
          "internalType": "address",
          "name": "operator",
          "type": "address"
        }
      ],
      "name": "isApprovedForAll",
      "outputs": [
        {
          "internalType": "bool",
          "name": "",
          "type": "bool"
        }
      ],
      "stateMutability": "view",
      "type": "function"
    },
    {
      "inputs": [],
      "name": "maxMintPerTx",
      "outputs": [
        {
          "internalType": "uint256",
          "name": "",
          "type": "uint256"
        }
      ],
      "stateMutability": "view",
      "type": "function"
    },
    {
      "inputs": [],
      "name": "maxSupply",
      "outputs": [
        {
          "internalType": "uint256",
          "name": "",
          "type": "uint256"
        }
      ],
      "stateMutability": "view",
      "type": "function"
    },
    {
      "inputs": [],
      "name": "mintOpen",
      "outputs": [
        {
          "internalType": "bool",
          "name": "",
          "type": "bool"
        }
      ],
      "stateMutability": "view",
      "type": "function"
    },
    {
      "inputs": [],
      "name": "name",
      "outputs": [
        {
          "internalType": "string",
          "name": "",
          "type": "string"
        }
      ],
      "stateMutability": "view",
      "type": "function"
    },
    {
      "inputs": [],
      "name": "owner",
      "outputs": [
        {
          "internalType": "address",
          "name": "",
          "type": "address"
        }
      ],
      "stateMutability": "view",
      "type": "function"
    },
    {
      "inputs": [
        {
          "internalType": "uint256",
          "name": "tokenId",
          "type": "uint256"
        }
      ],
      "name": "ownerOf",
      "outputs": [
        {
          "internalType": "address",
          "name": "",
          "type": "address"
        }
      ],
      "stateMutability": "view",
      "type": "function"
    },
    {
      "inputs": [],
      "name": "price",
      "outputs": [
        {
          "internalType": "uint256",
          "name": "",
          "type": "uint256"
        }
      ],
      "stateMutability": "view",
      "type": "function"
    },
    {
      "inputs": [],
      "name": "renounceOwnership",
      "outputs": [],
      "stateMutability": "nonpayable",
      "type": "function"
    },
    {
      "inputs": [
        {
          "internalType": "address",
          "name": "from",
          "type": "address"
        },
        {
          "internalType": "address",
          "name": "to",
          "type": "address"
        },
        {
          "internalType": "uint256",
          "name": "tokenId",
          "type": "uint256"
        }
      ],
      "name": "safeTransferFrom",
      "outputs": [],
      "stateMutability": "payable",
      "type": "function"
    },
    {
      "inputs": [
        {
          "internalType": "address",
          "name": "from",
          "type": "address"
        },
        {
          "internalType": "address",
          "name": "to",
          "type": "address"
        },
        {
          "internalType": "uint256",
          "name": "tokenId",
          "type": "uint256"
        },
        {
          "internalType": "bytes",
          "name": "_data",
          "type": "bytes"
        }
      ],
      "name": "safeTransferFrom",
      "outputs": [],
      "stateMutability": "payable",
      "type": "function"
    },
    {
      "inputs": [
        {
          "internalType": "address",
          "name": "operator",
          "type": "address"
        },
        {
          "internalType": "bool",
          "name": "approved",
          "type": "bool"
        }
      ],
      "name": "setApprovalForAll",
      "outputs": [],
      "stateMutability": "nonpayable",
      "type": "function"
    },
    {
      "inputs": [
        {
          "internalType": "bytes4",
          "name": "interfaceId",
          "type": "bytes4"
        }
      ],
      "name": "supportsInterface",
      "outputs": [
        {
          "internalType": "bool",
          "name": "",
          "type": "bool"
        }
      ],
      "stateMutability": "view",
      "type": "function"
    },
    {
      "inputs": [],
      "name": "symbol",
      "outputs": [
        {
          "internalType": "string",
          "name": "",
          "type": "string"
        }
      ],
      "stateMutability": "view",
      "type": "function"
    },
    {
      "inputs": [],
      "name": "totalSupply",
      "outputs": [
        {
          "internalType": "uint256",
          "name": "",
          "type": "uint256"
        }
      ],
      "stateMutability": "view",
      "type": "function"
    },
    {
      "inputs": [
        {
          "internalType": "address",
          "name": "from",
          "type": "address"
        },
        {
          "internalType": "address",
          "name": "to",
          "type": "address"
        },
        {
          "internalType": "uint256",
          "name": "tokenId",
          "type": "uint256"
        }
      ],
      "name": "transferFrom",
      "outputs": [],
      "stateMutability": "payable",
      "type": "function"
    },
    {
      "inputs": [
        {
          "internalType": "address",
          "name": "newOwner",
          "type": "address"
        }
      ],
      "name": "transferOwnership",
      "outputs": [],
      "stateMutability": "nonpayable",
      "type": "function"
    },
    {
      "inputs": [],
      "name": "whitelistOpen",
      "outputs": [
        {
          "internalType": "bool",
          "name": "",
          "type": "bool"
        }
      ],
      "stateMutability": "view",
      "type": "function"
    },
    {
      "inputs": [],
      "name": "whitelistPrice",
      "outputs": [
        {
          "internalType": "uint256",
          "name": "",
          "type": "uint256"
        }
      ],
      "stateMutability": "view",
      "type": "function"
    },
    {
      "inputs": [
        {
          "internalType": "address",
          "name": "",
          "type": "address"
        }
      ],
      "name": "whitelisted",
      "outputs": [
        {
          "internalType": "bool",
          "name": "",
          "type": "bool"
        }
      ],
      "stateMutability": "view",
      "type": "function"
    },
    {
      "stateMutability": "payable",
      "type": "receive"
    },
    {
      "inputs": [],
      "name": "withdraw",
      "outputs": [],
      "stateMutability": "nonpayable",
      "type": "function"
    },
    {
      "inputs": [
        {
          "internalType": "uint256",
          "name": "_amount",
          "type": "uint256"
        }
      ],
      "name": "whitelistMint",
      "outputs": [],
      "stateMutability": "payable",
      "type": "function"
    },
    {
      "inputs": [
        {
          "internalType": "uint256",
          "name": "_amount",
          "type": "uint256"
        }
      ],
      "name": "mint",
      "outputs": [],
      "stateMutability": "payable",
      "type": "function"
    },
    {
      "inputs": [
        {
          "internalType": "uint256",
          "name": "tokenId",
          "type": "uint256"
        }
      ],
      "name": "tokenURI",
      "outputs": [
        {
          "internalType": "string",
          "name": "",
          "type": "string"
        }
      ],
      "stateMutability": "view",
      "type": "function"
    },
    {
      "inputs": [
        {
          "internalType": "string",
          "name": "_newURI",
          "type": "string"
        }
      ],
      "name": "updateURI",
      "outputs": [],
      "stateMutability": "nonpayable",
      "type": "function"
    },
    {
      "inputs": [
        {
          "internalType": "address",
          "name": "_user",
          "type": "address"
        }
      ],
      "name": "whitelist",
      "outputs": [],
      "stateMutability": "nonpayable",
      "type": "function"
    },
    {
      "inputs": [],
      "name": "updateWhitelistMint",
      "outputs": [],
      "stateMutability": "nonpayable",
      "type": "function"
    },
    {
      "inputs": [],
      "name": "updatePublicMint",
      "outputs": [],
      "stateMutability": "nonpayable",
      "type": "function"
    }
  ],
  "bytecode": "0x60a06040526014608090815250662386f26fc1000060095566038d7ea4c68000600a556005600b556000601160006101000a81548160ff0219169083151502179055506000601160016101000a81548160ff0219169083151502179055503480156200006a57600080fd5b506040518060400160405280600a81526020017f5061747269636b69657a000000000000000000000000000000000000000000008152506040518060400160405280600581526020017f5054524b5a0000000000000000000000000000000000000000000000000000008152508160029081620000e891906200052d565b508060039081620000fa91906200052d565b506200010b620001dc60201b60201c565b60008190555050506200013362000127620001e560201b60201c565b620001ed60201b60201c565b33600d60006101000a81548173ffffffffffffffffffffffffffffffffffffffff021916908373ffffffffffffffffffffffffffffffffffffffff160217905550600073ffffffffffffffffffffffffffffffffffffffff16600d60009054906101000a900473ffffffffffffffffffffffffffffffffffffffff1673ffffffffffffffffffffffffffffffffffffffff1603620001d657620001d562000614565b5b62000643565b60006001905090565b600033905090565b6000600860009054906101000a900473ffffffffffffffffffffffffffffffffffffffff16905081600860006101000a81548173ffffffffffffffffffffffffffffffffffffffff021916908373ffffffffffffffffffffffffffffffffffffffff1602179055508173ffffffffffffffffffffffffffffffffffffffff168173ffffffffffffffffffffffffffffffffffffffff167f8be0079c531659141344cd1fd0a4f28419497f9722a3daafe3b4186f6b6457e060405160405180910390a35050565b600081519050919050565b7f4e487b7100000000000000000000000000000000000000000000000000000000600052604160045260246000fd5b7f4e487b7100000000000000000000000000000000000000000000000000000000600052602260045260246000fd5b600060028204905060018216806200033557607f821691505b6020821081036200034b576200034a620002ed565b5b50919050565b60008190508160005260206000209050919050565b60006020601f8301049050919050565b600082821b905092915050565b600060088302620003b57fffffffffffffffffffffffffffffffffffffffffffffffffffffffffffffffff8262000376565b620003c1868362000376565b95508019841693508086168417925050509392505050565b6000819050919050565b6000819050919050565b60006200040e620004086200040284620003d9565b620003e3565b620003d9565b9050919050565b6000819050919050565b6200042a83620003ed565b62000442620004398262000415565b84845462000383565b825550505050565b600090565b620004596200044a565b620004668184846200041f565b505050565b5b818110156200048e57620004826000826200044f565b6001810190506200046c565b5050565b601f821115620004dd57620004a78162000351565b620004b28462000366565b81016020851015620004c2578190505b620004da620004d18562000366565b8301826200046b565b50505b505050565b600082821c905092915050565b60006200050260001984600802620004e2565b1980831691505092915050565b60006200051d8383620004ef565b9150826002028217905092915050565b6200053882620002b3565b67ffffffffffffffff811115620005545762000553620002be565b5b6200056082546200031c565b6200056d82828562000492565b600060209050601f831160018114620005a5576000841562000590578287015190505b6200059c85826200050f565b8655506200060c565b601f198416620005b58662000351565b60005b82811015620005df57848901518255600182019150602085019450602081019050620005b8565b86831015620005ff5784890151620005fb601f891682620004ef565b8355505b6001600288020188555050505b505050505050565b7f4e487b7100000000000000000000000000000000000000000000000000000000600052600160045260246000fd5b60805161331b6200065f6000396000611849015261331b6000f3fe6080604052600436106101dc5760003560e01c80638da5cb5b11610102578063c87b56dd11610095578063e00b474c11610064578063e00b474c1461068c578063e985e9c5146106a3578063f2fde38b146106e0578063fc1a1c36146107095761022e565b8063c87b56dd146105bc578063d5abeb01146105f9578063d936547e14610624578063de7fcb1d146106615761022e565b8063a0712d68116100d1578063a0712d6814610532578063a22cb4651461054e578063b88d4fde14610577578063c30f4a5a146105935761022e565b80638da5cb5b1461048857806395d89b41146104b35780639b19251a146104de578063a035b1fe146105075761022e565b806324bbd0491161017a57806370a082311161014957806370a08231146103ed578063715018a61461042a5780637db3aecc14610441578063868ff4a21461046c5761022e565b806324bbd049146103525780633ccfd60b1461037d57806342842e0e146103945780636352211e146103b05761022e565b8063081812fc116101b6578063081812fc146102b2578063095ea7b3146102ef57806318160ddd1461030b57806323b872dd146103365761022e565b806301ffc9a71461023357806303aa69501461027057806306fdde03146102875761022e565b3661022e5761022c34600d60009054906101000a900473ffffffffffffffffffffffffffffffffffffffff1673ffffffffffffffffffffffffffffffffffffffff1661073490919063ffffffff16565b005b600080fd5b34801561023f57600080fd5b5061025a600480360381019061025591906121b1565b610828565b60405161026791906121f9565b60405180910390f35b34801561027c57600080fd5b506102856108ba565b005b34801561029357600080fd5b5061029c6108ee565b6040516102a991906122a4565b60405180910390f35b3480156102be57600080fd5b506102d960048036038101906102d491906122fc565b610980565b6040516102e6919061236a565b60405180910390f35b610309600480360381019061030491906123b1565b6109ff565b005b34801561031757600080fd5b50610320610b43565b60405161032d9190612400565b60405180910390f35b610350600480360381019061034b919061241b565b610b5a565b005b34801561035e57600080fd5b50610367610e7c565b60405161037491906121f9565b60405180910390f35b34801561038957600080fd5b50610392610e8f565b005b6103ae60048036038101906103a9919061241b565b610f2d565b005b3480156103bc57600080fd5b506103d760048036038101906103d291906122fc565b610f4d565b6040516103e4919061236a565b60405180910390f35b3480156103f957600080fd5b50610414600480360381019061040f919061246e565b610f5f565b6040516104219190612400565b60405180910390f35b34801561043657600080fd5b5061043f611017565b005b34801561044d57600080fd5b5061045661102b565b60405161046391906121f9565b60405180910390f35b610486600480360381019061048191906122fc565b61103e565b005b34801561049457600080fd5b5061049d6112b5565b6040516104aa919061236a565b60405180910390f35b3480156104bf57600080fd5b506104c86112df565b6040516104d591906122a4565b60405180910390f35b3480156104ea57600080fd5b506105056004803603810190610500919061246e565b611371565b005b34801561051357600080fd5b5061051c611467565b6040516105299190612400565b60405180910390f35b61054c600480360381019061054791906122fc565b61146d565b005b34801561055a57600080fd5b50610575600480360381019061057091906124c7565b61160f565b005b610591600480360381019061058c919061263c565b61171a565b005b34801561059f57600080fd5b506105ba60048036038101906105b59190612760565b61178d565b005b3480156105c857600080fd5b506105e360048036038101906105de91906122fc565b6117a8565b6040516105f091906122a4565b60405180910390f35b34801561060557600080fd5b5061060e611847565b60405161061b9190612400565b60405180910390f35b34801561063057600080fd5b5061064b6004803603810190610646919061246e565b61186b565b60405161065891906121f9565b60405180910390f35b34801561066d57600080fd5b5061067661188b565b6040516106839190612400565b60405180910390f35b34801561069857600080fd5b506106a1611891565b005b3480156106af57600080fd5b506106ca60048036038101906106c591906127a9565b6118c5565b6040516106d791906121f9565b60405180910390f35b3480156106ec57600080fd5b506107076004803603810190610702919061246e565b611959565b005b34801561071557600080fd5b5061071e6119dc565b60405161072b9190612400565b60405180910390f35b80471015610777576040517f08c379a000000000000000000000000000000000000000000000000000000000815260040161076e90612835565b60405180910390fd5b60008273ffffffffffffffffffffffffffffffffffffffff168260405161079d90612886565b60006040518083038185875af1925050503d80600081146107da576040519150601f19603f3d011682016040523d82523d6000602084013e6107df565b606091505b5050905080610823576040517f08c379a000000000000000000000000000000000000000000000000000000000815260040161081a9061290d565b60405180910390fd5b505050565b60006301ffc9a760e01b827bffffffffffffffffffffffffffffffffffffffffffffffffffffffff1916148061088357506380ac58cd60e01b827bffffffffffffffffffffffffffffffffffffffffffffffffffffffff1916145b806108b35750635b5e139f60e01b827bffffffffffffffffffffffffffffffffffffffffffffffffffffffff1916145b9050919050565b6108c26119e2565b601160019054906101000a900460ff1615601160016101000a81548160ff021916908315150217905550565b6060600280546108fd9061295c565b80601f01602080910402602001604051908101604052809291908181526020018280546109299061295c565b80156109765780601f1061094b57610100808354040283529160200191610976565b820191906000526020600020905b81548152906001019060200180831161095957829003601f168201915b5050505050905090565b600061098b82611a60565b6109c1576040517fcf4700e400000000000000000000000000000000000000000000000000000000815260040160405180910390fd5b6006600083815260200190815260200160002060000160009054906101000a900473ffffffffffffffffffffffffffffffffffffffff169050919050565b6000610a0a82610f4d565b90508073ffffffffffffffffffffffffffffffffffffffff16610a2b611abf565b73ffffffffffffffffffffffffffffffffffffffff1614610a8e57610a5781610a52611abf565b6118c5565b610a8d576040517fcfb3b94200000000000000000000000000000000000000000000000000000000815260040160405180910390fd5b5b826006600084815260200190815260200160002060000160006101000a81548173ffffffffffffffffffffffffffffffffffffffff021916908373ffffffffffffffffffffffffffffffffffffffff160217905550818373ffffffffffffffffffffffffffffffffffffffff168273ffffffffffffffffffffffffffffffffffffffff167f8c5be1e5ebec7d5bd14f71427d1e84f3dd0314c0f7b2291e5b200ac8c7c3b92560405160405180910390a4505050565b6000610b4d611ac7565b6001546000540303905090565b6000610b6582611ad0565b90508373ffffffffffffffffffffffffffffffffffffffff168173ffffffffffffffffffffffffffffffffffffffff1614610bcc576040517fa114810000000000000000000000000000000000000000000000000000000000815260040160405180910390fd5b600080610bd884611b9c565b91509150610bee8187610be9611abf565b611bc3565b610c3a57610c0386610bfe611abf565b6118c5565b610c39576040517f59c896be00000000000000000000000000000000000000000000000000000000815260040160405180910390fd5b5b600073ffffffffffffffffffffffffffffffffffffffff168573ffffffffffffffffffffffffffffffffffffffff1603610ca0576040517fea553b3400000000000000000000000000000000000000000000000000000000815260040160405180910390fd5b610cad8686866001611c07565b8015610cb857600082555b600560008773ffffffffffffffffffffffffffffffffffffffff1673ffffffffffffffffffffffffffffffffffffffff168152602001908152602001600020600081546001900391905081905550600560008673ffffffffffffffffffffffffffffffffffffffff1673ffffffffffffffffffffffffffffffffffffffff1681526020019081526020016000206000815460010191905081905550610d8685610d62888887611c0d565b7c020000000000000000000000000000000000000000000000000000000017611c35565b600460008681526020019081526020016000208190555060007c0200000000000000000000000000000000000000000000000000000000841603610e0c5760006001850190506000600460008381526020019081526020016000205403610e0a576000548114610e09578360046000838152602001908152602001600020819055505b5b505b838573ffffffffffffffffffffffffffffffffffffffff168773ffffffffffffffffffffffffffffffffffffffff167fddf252ad1be2c89b69c2b068fc378daa952ba7f163c4a11628f55a4df523b3ef60405160405180910390a4610e748686866001611c60565b505050505050565b601160019054906101000a900460ff1681565b610e976119e2565b600047905060008111610edf576040517f08c379a0000000000000000000000000000000000000000000000000000000008152600401610ed6906129d9565b60405180910390fd5b610f2a81600d60009054906101000a900473ffffffffffffffffffffffffffffffffffffffff1673ffffffffffffffffffffffffffffffffffffffff1661073490919063ffffffff16565b50565b610f488383836040518060200160405280600081525061171a565b505050565b6000610f5882611ad0565b9050919050565b60008073ffffffffffffffffffffffffffffffffffffffff168273ffffffffffffffffffffffffffffffffffffffff1603610fc6576040517f8f4eb60400000000000000000000000000000000000000000000000000000000815260040160405180910390fd5b67ffffffffffffffff600560008473ffffffffffffffffffffffffffffffffffffffff1673ffffffffffffffffffffffffffffffffffffffff16815260200190815260200160002054169050919050565b61101f6119e2565b6110296000611c66565b565b601160009054906101000a900460ff1681565b601160009054906101000a900460ff1661108d576040517f08c379a000000000000000000000000000000000000000000000000000000000815260040161108490612a45565b60405180910390fd5b600e60003373ffffffffffffffffffffffffffffffffffffffff1673ffffffffffffffffffffffffffffffffffffffff16815260200190815260200160002060009054906101000a900460ff16611119576040517f08c379a000000000000000000000000000000000000000000000000000000000815260040161111090612ab1565b60405180910390fd5b600381600f60003373ffffffffffffffffffffffffffffffffffffffff1673ffffffffffffffffffffffffffffffffffffffff168152602001908152602001600020546111669190612b00565b11156111a7576040517f08c379a000000000000000000000000000000000000000000000000000000000815260040161119e90612ba6565b60405180910390fd5b80600a546111b59190612bc6565b3410156111f7576040517f08c379a00000000000000000000000000000000000000000000000000000000081526004016111ee90612c54565b60405180910390fd5b80600f60003373ffffffffffffffffffffffffffffffffffffffff1673ffffffffffffffffffffffffffffffffffffffff16815260200190815260200160002060008282546112469190612b00565b9250508190555061129834600d60009054906101000a900473ffffffffffffffffffffffffffffffffffffffff1673ffffffffffffffffffffffffffffffffffffffff1661073490919063ffffffff16565b6112b2338260405180602001604052806000815250611d2c565b50565b6000600860009054906101000a900473ffffffffffffffffffffffffffffffffffffffff16905090565b6060600380546112ee9061295c565b80601f016020809104026020016040519081016040528092919081815260200182805461131a9061295c565b80156113675780601f1061133c57610100808354040283529160200191611367565b820191906000526020600020905b81548152906001019060200180831161134a57829003601f168201915b5050505050905090565b6113796119e2565b60001515600e60008373ffffffffffffffffffffffffffffffffffffffff1673ffffffffffffffffffffffffffffffffffffffff16815260200190815260200160002060009054906101000a900460ff1615151461140c576040517f08c379a000000000000000000000000000000000000000000000000000000000815260040161140390612cc0565b60405180910390fd5b6001600e60008373ffffffffffffffffffffffffffffffffffffffff1673ffffffffffffffffffffffffffffffffffffffff16815260200190815260200160002060006101000a81548160ff02191690831515021790555050565b60095481565b601160019054906101000a900460ff166114bc576040517f08c379a00000000000000000000000000000000000000000000000000000000081526004016114b390612d2c565b60405180910390fd5b600b54811115611501576040517f08c379a00000000000000000000000000000000000000000000000000000000081526004016114f890612ba6565b60405180910390fd5b8060095461150f9190612bc6565b341015611551576040517f08c379a000000000000000000000000000000000000000000000000000000000815260040161154890612c54565b60405180910390fd5b80601060003373ffffffffffffffffffffffffffffffffffffffff1673ffffffffffffffffffffffffffffffffffffffff16815260200190815260200160002060008282546115a09190612b00565b925050819055506115f234600d60009054906101000a900473ffffffffffffffffffffffffffffffffffffffff1673ffffffffffffffffffffffffffffffffffffffff1661073490919063ffffffff16565b61160c338260405180602001604052806000815250611d2c565b50565b806007600061161c611abf565b73ffffffffffffffffffffffffffffffffffffffff1673ffffffffffffffffffffffffffffffffffffffff16815260200190815260200160002060008473ffffffffffffffffffffffffffffffffffffffff1673ffffffffffffffffffffffffffffffffffffffff16815260200190815260200160002060006101000a81548160ff0219169083151502179055508173ffffffffffffffffffffffffffffffffffffffff166116c9611abf565b73ffffffffffffffffffffffffffffffffffffffff167f17307eab39ab6107e8899845ad3d59bd9653f200f220920489ca2b5937696c318360405161170e91906121f9565b60405180910390a35050565b611725848484610b5a565b60008373ffffffffffffffffffffffffffffffffffffffff163b146117875761175084848484611dc9565b611786576040517fd1a57ed600000000000000000000000000000000000000000000000000000000815260040160405180910390fd5b5b50505050565b6117956119e2565b80600c90816117a49190612ef8565b5050565b60606117b382611a60565b6117e9576040517fa14c4b5000000000000000000000000000000000000000000000000000000000815260040160405180910390fd5b6000600c80546117f89061295c565b9050036118145760405180602001604052806000815250611840565b600c61181f83611f19565b6040516020016118309291906130d5565b6040516020818303038152906040525b9050919050565b7f000000000000000000000000000000000000000000000000000000000000000081565b600e6020528060005260406000206000915054906101000a900460ff1681565b600b5481565b6118996119e2565b601160009054906101000a900460ff1615601160006101000a81548160ff021916908315150217905550565b6000600760008473ffffffffffffffffffffffffffffffffffffffff1673ffffffffffffffffffffffffffffffffffffffff16815260200190815260200160002060008373ffffffffffffffffffffffffffffffffffffffff1673ffffffffffffffffffffffffffffffffffffffff16815260200190815260200160002060009054906101000a900460ff16905092915050565b6119616119e2565b600073ffffffffffffffffffffffffffffffffffffffff168173ffffffffffffffffffffffffffffffffffffffff16036119d0576040517f08c379a00000000000000000000000000000000000000000000000000000000081526004016119c790613176565b60405180910390fd5b6119d981611c66565b50565b600a5481565b6119ea611f69565b73ffffffffffffffffffffffffffffffffffffffff16611a086112b5565b73ffffffffffffffffffffffffffffffffffffffff1614611a5e576040517f08c379a0000000000000000000000000000000000000000000000000000000008152600401611a55906131e2565b60405180910390fd5b565b600081611a6b611ac7565b11158015611a7a575060005482105b8015611ab8575060007c0100000000000000000000000000000000000000000000000000000000600460008581526020019081526020016000205416145b9050919050565b600033905090565b60006001905090565b60008082905080611adf611ac7565b11611b6557600054811015611b645760006004600083815260200190815260200160002054905060007c0100000000000000000000000000000000000000000000000000000000821603611b62575b60008103611b58576004600083600190039350838152602001908152602001600020549050611b2e565b8092505050611b97565b505b5b6040517fdf2d9b4200000000000000000000000000000000000000000000000000000000815260040160405180910390fd5b919050565b60008060006006600085815260200190815260200160002090508092508254915050915091565b600073ffffffffffffffffffffffffffffffffffffffff8316925073ffffffffffffffffffffffffffffffffffffffff821691508382148383141790509392505050565b50505050565b60008060e883901c905060e8611c24868684611f71565b62ffffff16901b9150509392505050565b600073ffffffffffffffffffffffffffffffffffffffff83169250814260a01b178317905092915050565b50505050565b6000600860009054906101000a900473ffffffffffffffffffffffffffffffffffffffff16905081600860006101000a81548173ffffffffffffffffffffffffffffffffffffffff021916908373ffffffffffffffffffffffffffffffffffffffff1602179055508173ffffffffffffffffffffffffffffffffffffffff168173ffffffffffffffffffffffffffffffffffffffff167f8be0079c531659141344cd1fd0a4f28419497f9722a3daafe3b4186f6b6457e060405160405180910390a35050565b611d368383611f7a565b60008373ffffffffffffffffffffffffffffffffffffffff163b14611dc457600080549050600083820390505b611d766000868380600101945086611dc9565b611dac576040517fd1a57ed600000000000000000000000000000000000000000000000000000000815260040160405180910390fd5b818110611d63578160005414611dc157600080fd5b50505b505050565b60008373ffffffffffffffffffffffffffffffffffffffff1663150b7a02611def611abf565b8786866040518563ffffffff1660e01b8152600401611e119493929190613257565b6020604051808303816000875af1925050508015611e4d57506040513d601f19601f82011682018060405250810190611e4a91906132b8565b60015b611ec6573d8060008114611e7d576040519150601f19603f3d011682016040523d82523d6000602084013e611e82565b606091505b506000815103611ebe576040517fd1a57ed600000000000000000000000000000000000000000000000000000000815260040160405180910390fd5b805181602001fd5b63150b7a0260e01b7bffffffffffffffffffffffffffffffffffffffffffffffffffffffff1916817bffffffffffffffffffffffffffffffffffffffffffffffffffffffff191614915050949350505050565b606060a060405101806040526020810391506000825281835b600115611f5457600184039350600a81066030018453600a8104905080611f32575b50828103602084039350808452505050919050565b600033905090565b60009392505050565b60008054905060008203611fba576040517fb562e8dd00000000000000000000000000000000000000000000000000000000815260040160405180910390fd5b611fc76000848385611c07565b600160406001901b178202600560008573ffffffffffffffffffffffffffffffffffffffff1673ffffffffffffffffffffffffffffffffffffffff1681526020019081526020016000206000828254019250508190555061203e8361202f6000866000611c0d565b61203885612135565b17611c35565b6004600083815260200190815260200160002081905550600080838301905073ffffffffffffffffffffffffffffffffffffffff85169150828260007fddf252ad1be2c89b69c2b068fc378daa952ba7f163c4a11628f55a4df523b3ef600080a4600183015b8181146120df57808360007fddf252ad1be2c89b69c2b068fc378daa952ba7f163c4a11628f55a4df523b3ef600080a46001810190506120a4565b506000820361211a576040517f2e07630000000000000000000000000000000000000000000000000000000000815260040160405180910390fd5b8060008190555050506121306000848385611c60565b505050565b60006001821460e11b9050919050565b6000604051905090565b600080fd5b600080fd5b60007fffffffff0000000000000000000000000000000000000000000000000000000082169050919050565b61218e81612159565b811461219957600080fd5b50565b6000813590506121ab81612185565b92915050565b6000602082840312156121c7576121c661214f565b5b60006121d58482850161219c565b91505092915050565b60008115159050919050565b6121f3816121de565b82525050565b600060208201905061220e60008301846121ea565b92915050565b600081519050919050565b600082825260208201905092915050565b60005b8381101561224e578082015181840152602081019050612233565b60008484015250505050565b6000601f19601f8301169050919050565b600061227682612214565b612280818561221f565b9350612290818560208601612230565b6122998161225a565b840191505092915050565b600060208201905081810360008301526122be818461226b565b905092915050565b6000819050919050565b6122d9816122c6565b81146122e457600080fd5b50565b6000813590506122f6816122d0565b92915050565b6000602082840312156123125761231161214f565b5b6000612320848285016122e7565b91505092915050565b600073ffffffffffffffffffffffffffffffffffffffff82169050919050565b600061235482612329565b9050919050565b61236481612349565b82525050565b600060208201905061237f600083018461235b565b92915050565b61238e81612349565b811461239957600080fd5b50565b6000813590506123ab81612385565b92915050565b600080604083850312156123c8576123c761214f565b5b60006123d68582860161239c565b92505060206123e7858286016122e7565b9150509250929050565b6123fa816122c6565b82525050565b600060208201905061241560008301846123f1565b92915050565b6000806000606084860312156124345761243361214f565b5b60006124428682870161239c565b93505060206124538682870161239c565b9250506040612464868287016122e7565b9150509250925092565b6000602082840312156124845761248361214f565b5b60006124928482850161239c565b91505092915050565b6124a4816121de565b81146124af57600080fd5b50565b6000813590506124c18161249b565b92915050565b600080604083850312156124de576124dd61214f565b5b60006124ec8582860161239c565b92505060206124fd858286016124b2565b9150509250929050565b600080fd5b600080fd5b7f4e487b7100000000000000000000000000000000000000000000000000000000600052604160045260246000fd5b6125498261225a565b810181811067ffffffffffffffff8211171561256857612567612511565b5b80604052505050565b600061257b612145565b90506125878282612540565b919050565b600067ffffffffffffffff8211156125a7576125a6612511565b5b6125b08261225a565b9050602081019050919050565b82818337600083830152505050565b60006125df6125da8461258c565b612571565b9050828152602081018484840111156125fb576125fa61250c565b5b6126068482856125bd565b509392505050565b600082601f83011261262357612622612507565b5b81356126338482602086016125cc565b91505092915050565b600080600080608085870312156126565761265561214f565b5b60006126648782880161239c565b94505060206126758782880161239c565b9350506040612686878288016122e7565b925050606085013567ffffffffffffffff8111156126a7576126a6612154565b5b6126b38782880161260e565b91505092959194509250565b600067ffffffffffffffff8211156126da576126d9612511565b5b6126e38261225a565b9050602081019050919050565b60006127036126fe846126bf565b612571565b90508281526020810184848401111561271f5761271e61250c565b5b61272a8482856125bd565b509392505050565b600082601f83011261274757612746612507565b5b81356127578482602086016126f0565b91505092915050565b6000602082840312156127765761277561214f565b5b600082013567ffffffffffffffff81111561279457612793612154565b5b6127a084828501612732565b91505092915050565b600080604083850312156127c0576127bf61214f565b5b60006127ce8582860161239c565b92505060206127df8582860161239c565b9150509250929050565b7f416464726573733a20696e73756666696369656e742062616c616e6365000000600082015250565b600061281f601d8361221f565b915061282a826127e9565b602082019050919050565b6000602082019050818103600083015261284e81612812565b9050919050565b600081905092915050565b50565b6000612870600083612855565b915061287b82612860565b600082019050919050565b600061289182612863565b9150819050919050565b7f416464726573733a20756e61626c6520746f2073656e642076616c75652c207260008201527f6563697069656e74206d61792068617665207265766572746564000000000000602082015250565b60006128f7603a8361221f565b91506129028261289b565b604082019050919050565b60006020820190508181036000830152612926816128ea565b9050919050565b7f4e487b7100000000000000000000000000000000000000000000000000000000600052602260045260246000fd5b6000600282049050600182168061297457607f821691505b6020821081036129875761298661292d565b5b50919050565b7f436f6e747261637420697320656d707479210000000000000000000000000000600082015250565b60006129c360128361221f565b91506129ce8261298d565b602082019050919050565b600060208201905081810360008301526129f2816129b6565b9050919050565b7f57686974656c697374206d696e7420697320636c6f7365640000000000000000600082015250565b6000612a2f60188361221f565b9150612a3a826129f9565b602082019050919050565b60006020820190508181036000830152612a5e81612a22565b9050919050565b7f55736572206973206e6f742077686974656c6973746564210000000000000000600082015250565b6000612a9b60188361221f565b9150612aa682612a65565b602082019050919050565b60006020820190508181036000830152612aca81612a8e565b9050919050565b7f4e487b7100000000000000000000000000000000000000000000000000000000600052601160045260246000fd5b6000612b0b826122c6565b9150612b16836122c6565b9250828201905080821115612b2e57612b2d612ad1565b5b92915050565b7f4f6e6c79203320546f6b656e73207065722077686974656c6973742073706f7460008201527f2100000000000000000000000000000000000000000000000000000000000000602082015250565b6000612b9060218361221f565b9150612b9b82612b34565b604082019050919050565b60006020820190508181036000830152612bbf81612b83565b9050919050565b6000612bd1826122c6565b9150612bdc836122c6565b9250828202612bea816122c6565b91508282048414831517612c0157612c00612ad1565b5b5092915050565b7f496e73756666696369656e742046756e64732100000000000000000000000000600082015250565b6000612c3e60138361221f565b9150612c4982612c08565b602082019050919050565b60006020820190508181036000830152612c6d81612c31565b9050919050565b7f5573657220697320616c72656164792077686974656c69737465642100000000600082015250565b6000612caa601c8361221f565b9150612cb582612c74565b602082019050919050565b60006020820190508181036000830152612cd981612c9d565b9050919050565b7f5075626c6963206d696e7420697320636c6f7365640000000000000000000000600082015250565b6000612d1660158361221f565b9150612d2182612ce0565b602082019050919050565b60006020820190508181036000830152612d4581612d09565b9050919050565b60008190508160005260206000209050919050565b60006020601f8301049050919050565b600082821b905092915050565b600060088302612dae7fffffffffffffffffffffffffffffffffffffffffffffffffffffffffffffffff82612d71565b612db88683612d71565b95508019841693508086168417925050509392505050565b6000819050919050565b6000612df5612df0612deb846122c6565b612dd0565b6122c6565b9050919050565b6000819050919050565b612e0f83612dda565b612e23612e1b82612dfc565b848454612d7e565b825550505050565b600090565b612e38612e2b565b612e43818484612e06565b505050565b5b81811015612e6757612e5c600082612e30565b600181019050612e49565b5050565b601f821115612eac57612e7d81612d4c565b612e8684612d61565b81016020851015612e95578190505b612ea9612ea185612d61565b830182612e48565b50505b505050565b600082821c905092915050565b6000612ecf60001984600802612eb1565b1980831691505092915050565b6000612ee88383612ebe565b9150826002028217905092915050565b612f0182612214565b67ffffffffffffffff811115612f1a57612f19612511565b5b612f24825461295c565b612f2f828285612e6b565b600060209050601f831160018114612f625760008415612f50578287015190505b612f5a8582612edc565b865550612fc2565b601f198416612f7086612d4c565b60005b82811015612f9857848901518255600182019150602085019450602081019050612f73565b86831015612fb55784890151612fb1601f891682612ebe565b8355505b6001600288020188555050505b505050505050565b600081905092915050565b60008154612fe28161295c565b612fec8186612fca565b94506001821660008114613007576001811461301c5761304f565b60ff198316865281151582028601935061304f565b61302585612d4c565b60005b8381101561304757815481890152600182019150602081019050613028565b838801955050505b50505092915050565b600061306382612214565b61306d8185612fca565b935061307d818560208601612230565b80840191505092915050565b7f2e6a736f6e000000000000000000000000000000000000000000000000000000600082015250565b60006130bf600583612fca565b91506130ca82613089565b600582019050919050565b60006130e18285612fd5565b91506130ed8284613058565b91506130f8826130b2565b91508190509392505050565b7f4f776e61626c653a206e6577206f776e657220697320746865207a65726f206160008201527f6464726573730000000000000000000000000000000000000000000000000000602082015250565b600061316060268361221f565b915061316b82613104565b604082019050919050565b6000602082019050818103600083015261318f81613153565b9050919050565b7f4f776e61626c653a2063616c6c6572206973206e6f7420746865206f776e6572600082015250565b60006131cc60208361221f565b91506131d782613196565b602082019050919050565b600060208201905081810360008301526131fb816131bf565b9050919050565b600081519050919050565b600082825260208201905092915050565b600061322982613202565b613233818561320d565b9350613243818560208601612230565b61324c8161225a565b840191505092915050565b600060808201905061326c600083018761235b565b613279602083018661235b565b61328660408301856123f1565b8181036060830152613298818461321e565b905095945050505050565b6000815190506132b281612185565b92915050565b6000602082840312156132ce576132cd61214f565b5b60006132dc848285016132a3565b9150509291505056fea2646970667358221220911b2e0c413a6d910448a488c53aac58e0df7f4df0790a24efc9eb5e60844b1164736f6c63430008110033",
  "immutableReferences": {
    "3352": [
      {
        "length": 32,
        "start": 6217
      }
    ]
  },
  "source": "// SPDX-License-Identifier: MIT\r\n\r\npragma solidity ^0.8.0;\r\n\r\nimport \"erc721a/contracts/ERC721A.sol\";\r\nimport \"@openzeppelin/contracts/access/Ownable.sol\";\r\nimport \"@openzeppelin/contracts/utils/Strings.sol\";\r\nimport \"@openzeppelin/contracts/utils/Address.sol\";\r\n\r\n\r\ncontract Patrickiez is ERC721A, Ownable {\r\n    using Address for address payable;\r\n    using Strings for uint256;\r\n\r\n    // =============================================================\r\n    //                     STORAGE\r\n    // =============================================================\r\n\r\n    uint immutable public maxSupply = 20;\r\n    uint public price = 0.01 ether;\r\n    uint public whitelistPrice = 0.001 ether;\r\n    uint public maxMintPerTx = 5;\r\n\r\n    string private baseURI;\r\n\r\n    address payable private paymentReceiver;\r\n\r\n    mapping(address => bool) public whitelisted;\r\n    mapping(address => uint) whitelistMintCount;\r\n    mapping(address => uint) publicMintCount;\r\n\r\n    bool public whitelistOpen = false;\r\n    bool public mintOpen = false;\r\n\r\n    // =============================================================\r\n    //                     CONSTRUCTOR\r\n    // =============================================================\r\n\r\n    constructor() ERC721A(\"Patrickiez\", \"PTRKZ\") {\r\n        paymentReceiver = payable(msg.sender);\r\n        assert(paymentReceiver != address(0));\r\n    }\r\n\r\n    // =============================================================\r\n    //                     FUND MANAGEMENT\r\n    // =============================================================\r\n\r\n    receive() external payable {\r\n        paymentReceiver.sendValue(msg.value);\r\n    }\r\n\r\n    function withdraw() public onlyOwner {\r\n        uint contractBalance = address(this).balance;\r\n        require(contractBalance > 0, \"Contract is empty!\");\r\n        paymentReceiver.sendValue(contractBalance);\r\n    }\r\n\r\n    // =============================================================\r\n    //                     MINT FUNCTIONS\r\n    // =============================================================\r\n    \r\n    function whitelistMint(uint _amount) external payable {\r\n        require(whitelistOpen, \"Whitelist mint is closed\");\r\n        require(whitelisted[msg.sender], \"User is not whitelisted!\");\r\n        require(whitelistMintCount[msg.sender] + _amount <= 3, \"Only 3 Tokens per whitelist spot!\");\r\n        require(msg.value >= (whitelistPrice * _amount), \"Insufficient Funds!\");\r\n\r\n        whitelistMintCount[msg.sender] += _amount;\r\n\r\n        paymentReceiver.sendValue(msg.value);\r\n        _safeMint(msg.sender, _amount, \"\");\r\n    }\r\n\r\n    function mint(uint _amount) external payable {\r\n        require(mintOpen, \"Public mint is closed\");\r\n        require(_amount <= maxMintPerTx, \"Only 3 Tokens per whitelist spot!\");\r\n        require(msg.value >= (price * _amount), \"Insufficient Funds!\");\r\n\r\n        publicMintCount[msg.sender] += _amount;\r\n\r\n        paymentReceiver.sendValue(msg.value);\r\n        _safeMint(msg.sender, _amount, \"\");\r\n    }\r\n\r\n    // =============================================================\r\n    //                     TOKEN URI OPERATIONS\r\n    // =============================================================\r\n    \r\n    //returns full URI\r\n    function tokenURI(uint256 tokenId) public view override returns (string memory) {\r\n        if (!_exists(tokenId)) revert URIQueryForNonexistentToken();\r\n\r\n        return bytes(baseURI).length != 0 ? string(abi.encodePacked(baseURI, _toString(tokenId),\".json\")) : '';\r\n    }\r\n\r\n    //updates the current URI variable\r\n    function updateURI(string memory _newURI) external onlyOwner {\r\n        baseURI = _newURI;\r\n    }\r\n\r\n    // =============================================================\r\n    //                     MINT STATE OPERATIONS\r\n    // =============================================================\r\n\r\n    //whitelists new users\r\n    function whitelist(address _user) external onlyOwner {\r\n        require(whitelisted[_user] == false, \"User is already whitelisted!\");\r\n        whitelisted[_user] = true;\r\n    }\r\n\r\n    //flips the whitelist open and closed\r\n    function updateWhitelistMint() external onlyOwner {\r\n        whitelistOpen = !whitelistOpen;\r\n    }\r\n\r\n    //flips the public mint open and closed\r\n    function updatePublicMint() external onlyOwner {\r\n        mintOpen = !mintOpen;\r\n    }\r\n\r\n    // =============================================================\r\n    //                     UPDATED OPERATIONS\r\n    // =============================================================\r\n\r\n    //Override ensures Token IDs start from 1 instead of 0\r\n    function _startTokenId() internal pure override returns (uint256) {\r\n        return 1;\r\n    }\r\n\r\n\r\n}",
  "sourcePath": "C:\\Users\\danie\\OneDrive\\Desktop\\Altify\\NFT Creation\\ERC721A_LOWGAS\\contracts\\Patrickiez.sol",
  "compiler": {
    "name": "solc",
    "version": "0.8.17+commit.8df45f5f.Emscripten.clang"
  },
  "schemaVersion": "3.4.11",
  "updatedAt": "2023-01-04T20:09:09.873Z",
  "devdoc": {
    "kind": "dev",
    "methods": {
      "approve(address,uint256)": {
        "details": "Gives permission to `to` to transfer `tokenId` token to another account. The approval is cleared when the token is transferred. Only a single account can be approved at a time, so approving the zero address clears previous approvals. Requirements: - The caller must own the token or be an approved operator. - `tokenId` must exist. Emits an {Approval} event."
      },
      "balanceOf(address)": {
        "details": "Returns the number of tokens in `owner`'s account."
      },
      "getApproved(uint256)": {
        "details": "Returns the account approved for `tokenId` token. Requirements: - `tokenId` must exist."
      },
      "isApprovedForAll(address,address)": {
        "details": "Returns if the `operator` is allowed to manage all of the assets of `owner`. See {setApprovalForAll}."
      },
      "name()": {
        "details": "Returns the token collection name."
      },
      "owner()": {
        "details": "Returns the address of the current owner."
      },
      "ownerOf(uint256)": {
        "details": "Returns the owner of the `tokenId` token. Requirements: - `tokenId` must exist."
      },
      "renounceOwnership()": {
        "details": "Leaves the contract without owner. It will not be possible to call `onlyOwner` functions anymore. Can only be called by the current owner. NOTE: Renouncing ownership will leave the contract without an owner, thereby removing any functionality that is only available to the owner."
      },
      "safeTransferFrom(address,address,uint256)": {
        "details": "Equivalent to `safeTransferFrom(from, to, tokenId, '')`."
      },
      "safeTransferFrom(address,address,uint256,bytes)": {
        "details": "Safely transfers `tokenId` token from `from` to `to`. Requirements: - `from` cannot be the zero address. - `to` cannot be the zero address. - `tokenId` token must exist and be owned by `from`. - If the caller is not `from`, it must be approved to move this token by either {approve} or {setApprovalForAll}. - If `to` refers to a smart contract, it must implement {IERC721Receiver-onERC721Received}, which is called upon a safe transfer. Emits a {Transfer} event."
      },
      "setApprovalForAll(address,bool)": {
        "details": "Approve or remove `operator` as an operator for the caller. Operators can call {transferFrom} or {safeTransferFrom} for any token owned by the caller. Requirements: - The `operator` cannot be the caller. Emits an {ApprovalForAll} event."
      },
      "supportsInterface(bytes4)": {
        "details": "Returns true if this contract implements the interface defined by `interfaceId`. See the corresponding [EIP section](https://eips.ethereum.org/EIPS/eip-165#how-interfaces-are-identified) to learn more about how these ids are created. This function call must use less than 30000 gas."
      },
      "symbol()": {
        "details": "Returns the token collection symbol."
      },
      "tokenURI(uint256)": {
        "details": "Returns the Uniform Resource Identifier (URI) for `tokenId` token."
      },
      "totalSupply()": {
        "details": "Returns the total number of tokens in existence. Burned tokens will reduce the count. To get the total number of tokens minted, please see {_totalMinted}."
      },
      "transferFrom(address,address,uint256)": {
        "details": "Transfers `tokenId` from `from` to `to`. Requirements: - `from` cannot be the zero address. - `to` cannot be the zero address. - `tokenId` token must be owned by `from`. - If the caller is not `from`, it must be approved to move this token by either {approve} or {setApprovalForAll}. Emits a {Transfer} event."
      },
      "transferOwnership(address)": {
        "details": "Transfers ownership of the contract to a new account (`newOwner`). Can only be called by the current owner."
      }
    },
    "version": 1
  },
  "userdoc": {
    "errors": {
      "ApprovalCallerNotOwnerNorApproved()": [
        {
          "notice": "The caller must own the token or be an approved operator."
        }
      ],
      "ApprovalQueryForNonexistentToken()": [
        {
          "notice": "The token does not exist."
        }
      ],
      "BalanceQueryForZeroAddress()": [
        {
          "notice": "Cannot query the balance for the zero address."
        }
      ],
      "MintERC2309QuantityExceedsLimit()": [
        {
          "notice": "The `quantity` minted with ERC2309 exceeds the safety limit."
        }
      ],
      "MintToZeroAddress()": [
        {
          "notice": "Cannot mint to the zero address."
        }
      ],
      "MintZeroQuantity()": [
        {
          "notice": "The quantity of tokens minted must be more than zero."
        }
      ],
      "OwnerQueryForNonexistentToken()": [
        {
          "notice": "The token does not exist."
        }
      ],
      "OwnershipNotInitializedForExtraData()": [
        {
          "notice": "The `extraData` cannot be set on an unintialized ownership slot."
        }
      ],
      "TransferCallerNotOwnerNorApproved()": [
        {
          "notice": "The caller must own the token or be an approved operator."
        }
      ],
      "TransferFromIncorrectOwner()": [
        {
          "notice": "The token must be owned by `from`."
        }
      ],
      "TransferToNonERC721ReceiverImplementer()": [
        {
          "notice": "Cannot safely transfer to a contract that does not implement the ERC721Receiver interface."
        }
      ],
      "TransferToZeroAddress()": [
        {
          "notice": "Cannot transfer to the zero address."
        }
      ],
      "URIQueryForNonexistentToken()": [
        {
          "notice": "The token does not exist."
        }
      ]
    },
    "kind": "user",
    "methods": {},
    "version": 1
  }
}